{
  "contractName": "BandBounty",
  "abi": [
    {
      "inputs": [],
      "stateMutability": "nonpayable",
      "type": "constructor"
    },
    {
      "inputs": [
        {
          "internalType": "address",
          "name": "",
          "type": "address"
        }
      ],
      "name": "balances",
      "outputs": [
        {
          "internalType": "uint256",
          "name": "",
          "type": "uint256"
        }
      ],
      "stateMutability": "view",
      "type": "function",
      "constant": true
    },
    {
      "inputs": [],
      "name": "contributorsCount",
      "outputs": [
        {
          "internalType": "uint256",
          "name": "",
          "type": "uint256"
        }
      ],
      "stateMutability": "view",
      "type": "function",
      "constant": true
    },
    {
      "inputs": [],
      "name": "deploymentTime",
      "outputs": [
        {
          "internalType": "uint256",
          "name": "",
          "type": "uint256"
        }
      ],
      "stateMutability": "view",
      "type": "function",
      "constant": true
    },
    {
      "inputs": [],
      "name": "state",
      "outputs": [
        {
          "internalType": "uint256",
          "name": "",
          "type": "uint256"
        }
      ],
      "stateMutability": "view",
      "type": "function",
      "constant": true
    },
    {
      "inputs": [
        {
          "internalType": "uint256",
          "name": "_state",
          "type": "uint256"
        }
      ],
      "name": "setState",
      "outputs": [],
      "stateMutability": "nonpayable",
      "type": "function"
    },
    {
      "inputs": [],
      "name": "contribute",
      "outputs": [],
      "stateMutability": "payable",
      "type": "function",
      "payable": true
    },
    {
      "inputs": [],
      "name": "claimStandardTicket",
      "outputs": [],
      "stateMutability": "nonpayable",
      "type": "function"
    },
    {
      "inputs": [],
      "name": "claimVipTicket",
      "outputs": [],
      "stateMutability": "nonpayable",
      "type": "function"
    }
  ],
  "bytecode": "0x608060405260006008556000600a5534801561001a57600080fd5b50336000806101000a81548173ffffffffffffffffffffffffffffffffffffffff021916908373ffffffffffffffffffffffffffffffffffffffff1602179055506001808190555042600581905550610a6a806100786000396000f3fe60806040526004361061007b5760003560e01c8063c2c62aab1161004e578063c2c62aab1461013c578063d7bb99ba14610153578063ecda10f51461015d578063ff004b1b146101885761007b565b806327e235e3146100805780637569b3d7146100bd578063a9e966b7146100e8578063c19d93fb14610111575b600080fd5b34801561008c57600080fd5b506100a760048036038101906100a291906106bd565b61019f565b6040516100b49190610703565b60405180910390f35b3480156100c957600080fd5b506100d26101b7565b6040516100df9190610703565b60405180910390f35b3480156100f457600080fd5b5061010f600480360381019061010a919061074a565b6101bd565b005b34801561011d57600080fd5b5061012661028c565b6040516101339190610703565b60405180910390f35b34801561014857600080fd5b50610151610292565b005b61015b610354565b005b34801561016957600080fd5b506101726104c3565b60405161017f9190610703565b60405180910390f35b34801561019457600080fd5b5061019d6104c9565b005b60026020528060005260406000206000915090505481565b60075481565b60008054906101000a900473ffffffffffffffffffffffffffffffffffffffff1673ffffffffffffffffffffffffffffffffffffffff163373ffffffffffffffffffffffffffffffffffffffff161461021557600080fd5b60006006541461025a576040517f08c379a0000000000000000000000000000000000000000000000000000000008152600401610251906107d4565b60405180910390fd5b806001819055506002810361027157426005819055505b6006600081548092919061028490610823565b919050555050565b60015481565b6101f4600260003373ffffffffffffffffffffffffffffffffffffffff1673ffffffffffffffffffffffffffffffffffffffff168152602001908152602001600020541061035257336009600854815481106102f1576102f061086b565b5b9060005260206000200160006101000a81548173ffffffffffffffffffffffffffffffffffffffff021916908373ffffffffffffffffffffffffffffffffffffffff1602179055506008600081548092919061034c90610823565b91905055505b565b600060015403610399576040517f08c379a0000000000000000000000000000000000000000000000000000000008152600401610390906108e6565b60405180910390fd5b60006276a7006005546103ac9190610906565b90506000429050818111156103c45760006001819055505b6000600360003373ffffffffffffffffffffffffffffffffffffffff1673ffffffffffffffffffffffffffffffffffffffff1681526020019081526020016000205403610424576007600081548092919061041e90610823565b91905055505b6001600360003373ffffffffffffffffffffffffffffffffffffffff1673ffffffffffffffffffffffffffffffffffffffff1681526020019081526020016000208190555034600260003373ffffffffffffffffffffffffffffffffffffffff1673ffffffffffffffffffffffffffffffffffffffff16815260200190815260200160002060008282546104b89190610906565b925050819055505050565b60055481565b6065600a541061050e576040517f08c379a0000000000000000000000000000000000000000000000000000000008152600401610505906109a8565b60405180910390fd5b6103e8600260003373ffffffffffffffffffffffffffffffffffffffff1673ffffffffffffffffffffffffffffffffffffffff168152602001908152602001600020541015610592576040517f08c379a000000000000000000000000000000000000000000000000000000000815260040161058990610a14565b60405180910390fd5b6001600460003373ffffffffffffffffffffffffffffffffffffffff1673ffffffffffffffffffffffffffffffffffffffff16815260200190815260200160002060006101000a81548160ff02191690831515021790555033600b600a54606581106106015761060061086b565b5b0160006101000a81548173ffffffffffffffffffffffffffffffffffffffff021916908373ffffffffffffffffffffffffffffffffffffffff160217905550600a600081548092919061065390610823565b9190505550565b600080fd5b600073ffffffffffffffffffffffffffffffffffffffff82169050919050565b600061068a8261065f565b9050919050565b61069a8161067f565b81146106a557600080fd5b50565b6000813590506106b781610691565b92915050565b6000602082840312156106d3576106d261065a565b5b60006106e1848285016106a8565b91505092915050565b6000819050919050565b6106fd816106ea565b82525050565b600060208201905061071860008301846106f4565b92915050565b610727816106ea565b811461073257600080fd5b50565b6000813590506107448161071e565b92915050565b6000602082840312156107605761075f61065a565b5b600061076e84828501610735565b91505092915050565b600082825260208201905092915050565b7f53746174652063616e206f6e6c79206265206368616e676564206f6e63650000600082015250565b60006107be601e83610777565b91506107c982610788565b602082019050919050565b600060208201905081810360008301526107ed816107b1565b9050919050565b7f4e487b7100000000000000000000000000000000000000000000000000000000600052601160045260246000fd5b600061082e826106ea565b91507fffffffffffffffffffffffffffffffffffffffffffffffffffffffffffffffff82036108605761085f6107f4565b5b600182019050919050565b7f4e487b7100000000000000000000000000000000000000000000000000000000600052603260045260246000fd5b7f4d757374206e6f7420626520696e205245442073746174650000000000000000600082015250565b60006108d0601883610777565b91506108db8261089a565b602082019050919050565b600060208201905081810360008301526108ff816108c3565b9050919050565b6000610911826106ea565b915061091c836106ea565b9250827fffffffffffffffffffffffffffffffffffffffffffffffffffffffffffffffff03821115610951576109506107f4565b5b828201905092915050565b7f566970204c6973742066756c6c00000000000000000000000000000000000000600082015250565b6000610992600d83610777565b915061099d8261095c565b602082019050919050565b600060208201905081810360008301526109c181610985565b9050919050565b7f4e6f7420656e6f7567682066756e647300000000000000000000000000000000600082015250565b60006109fe601083610777565b9150610a09826109c8565b602082019050919050565b60006020820190508181036000830152610a2d816109f1565b905091905056fea2646970667358221220b49c28c22d31b008b643997fc5bd1dfa6f63703edc227d167e84f098ad7eace064736f6c634300080f0033",
  "immutableReferences": {},
  "source": "// SPDX-License-Identifier: GPL-3.0\n\npragma solidity <0.9.0;\n\nimport './ModifiersContract.sol';\nimport './PriceFeed.sol';\n\ncontract BandBounty is Modifiers /*, PriceConsumerV3*/  {\n\n    //Mappings\n    mapping(address => uint) public balances;\n    mapping(address => uint) contributors;\n    mapping(address => bool) vipContributors;\n\n\n    //Variables\n    uint256 public deploymentTime;\n    uint256 setStateCounter;\n    uint256 public contributorsCount;\n\n    uint256 standardTicketCounter = 0;\n    address[] standardTicketHolders;\n    uint256 vipTicketCounter = 0;\n    address[101] vipTicketHolders;\n    \n\n    constructor() {\n        manager = msg.sender;\n        state = 1;\n        deploymentTime = block.timestamp;\n\n    }\n\n\n    //Functions\n\n\n    function setState(uint _state)public onlyOwner {\n        require(setStateCounter == 0, \"State can only be changed once\");\n\n        state = _state;\n        // 0 = Red,  1 = Yellow,  2 = Green,  3 = Complete\n\n        if(_state == 2){\n            deploymentTime = block.timestamp;\n\n        }\n        //To prevent state being exploited by manager\n        setStateCounter++;\n    }\n\n\n\n    function contribute() public payable notRed {\n        uint expirationTime = deploymentTime + 90 days;\n        uint currentTime = block.timestamp;\n\n        if(currentTime > expirationTime){\n            state = 0;\n        }\n\n        /* Contributors allows front end to keep track\n        of number of people involved */\n        if(contributors[msg.sender] == 0){\n            contributorsCount++;\n        }\n        //This makes sure a single contributor isn't counted twice\n        contributors[msg.sender] = 1;\n\n        //Update users balance with new contribution\n        balances[msg.sender] += msg.value;\n\n\n    }\n\n    //Adding contributors to their group standard or Vip\n    \n    function claimStandardTicket() public {\n\n        if(balances[msg.sender] >= /*standardTicket()*/ 500){\n\n            standardTicketHolders[standardTicketCounter] = msg.sender;\n            standardTicketCounter++;\n        }\n\n    }\n\n    function claimVipTicket() public {\n        require(vipTicketCounter < 101, \"Vip List full\");\n        require(balances[msg.sender] >= /*vipTicket()*/ 1000, \"Not enough funds\");\n        \n            \n            vipContributors[msg.sender] = true;\n            vipTicketHolders[vipTicketCounter] = msg.sender;\n            vipTicketCounter++;\n\n        \n\n    }\n\n\n}",
  "sourcePath": "/Users/danielboyce/Documents/Visual-studio/Portfolio/BandBountyRebuild/contracts/BandBountyContract.sol",
  "compiler": {
    "name": "solc",
    "version": "0.8.15+commit.e14f2714.Emscripten.clang"
  },
  "schemaVersion": "3.4.8",
  "updatedAt": "2022-07-23T12:50:37.234Z",
  "networkType": "ethereum",
  "devdoc": {
    "kind": "dev",
    "methods": {},
    "version": 1
  },
  "userdoc": {
    "kind": "user",
    "methods": {},
    "version": 1
  }
}