{
  "contractName": "BountyFactory",
  "abi": [
    {
      "inputs": [
        {
          "internalType": "uint256",
          "name": "",
          "type": "uint256"
        }
      ],
      "name": "deployedBounties",
      "outputs": [
        {
          "internalType": "contract Bounty",
          "name": "",
          "type": "address"
        }
      ],
      "stateMutability": "view",
      "type": "function"
    },
    {
      "inputs": [
        {
          "internalType": "address",
          "name": "creator",
          "type": "address"
        }
      ],
      "name": "createBounty",
      "outputs": [],
      "stateMutability": "payable",
      "type": "function"
    }
  ],
  "bytecode": "0x608060405234801561001057600080fd5b50612a10806100206000396000f3fe6080604052600436106200002c5760003560e01c8063a0bf29fa1462000031578063bfd05e681462000075575b600080fd5b3480156200003e57600080fd5b506200005d6004803603810190620000579190620001ca565b62000095565b6040516200006c919062000287565b60405180910390f35b6200009360048036038101906200008d9190620002e9565b620000d5565b005b60008181548110620000a657600080fd5b906000526020600020016000915054906101000a900473ffffffffffffffffffffffffffffffffffffffff1681565b6000606f82604051620000e8906200017c565b620000f491906200032c565b6040518091039082f090508015801562000112573d6000803e3d6000fd5b5090506000819080600181540180825580915050600190039060005260206000200160009091909190916101000a81548173ffffffffffffffffffffffffffffffffffffffff021916908373ffffffffffffffffffffffffffffffffffffffff1602179055505050565b612691806200034a83390190565b600080fd5b6000819050919050565b620001a4816200018f565b8114620001b057600080fd5b50565b600081359050620001c48162000199565b92915050565b600060208284031215620001e357620001e26200018a565b5b6000620001f384828501620001b3565b91505092915050565b600073ffffffffffffffffffffffffffffffffffffffff82169050919050565b6000819050919050565b600062000247620002416200023b84620001fc565b6200021c565b620001fc565b9050919050565b60006200025b8262000226565b9050919050565b60006200026f826200024e565b9050919050565b620002818162000262565b82525050565b60006020820190506200029e600083018462000276565b92915050565b6000620002b182620001fc565b9050919050565b620002c381620002a4565b8114620002cf57600080fd5b50565b600081359050620002e381620002b8565b92915050565b6000602082840312156200030257620003016200018a565b5b60006200031284828501620002d2565b91505092915050565b6200032681620002a4565b82525050565b60006020820190506200034360008301846200031b565b9291505056fe6080604052735c3d553769d4473d53df67b04eb0f51d3c7705d86000806101000a81548173ffffffffffffffffffffffffffffffffffffffff021916908373ffffffffffffffffffffffffffffffffffffffff160217905550426011556000601255600061272455604051620026913803806200269183398181016040528101906200008c9190620002cc565b738a753747a1fa494ec906ce90e9f37563a8af630e600260006101000a81548173ffffffffffffffffffffffffffffffffffffffff021916908373ffffffffffffffffffffffffffffffffffffffff1602179055506802b5e3af16b1880000600381905550670de0b6b3a76400006200010a6200019660201b60201c565b62000116919062000337565b600481905550600454670de0b6b3a764000060035462000137919062000337565b6200014391906200048d565b60058190555033905060018081905550601154600c819055506276a700601160008282546200017391906200050b565b9250508190556010819055506802b5e3af16b1880000600f819055505062000699565b60006305f5e100620001ad620001be60201b60201c565b620001b991906200048d565b905090565b600080600260009054906101000a900473ffffffffffffffffffffffffffffffffffffffff1673ffffffffffffffffffffffffffffffffffffffff1663feaf968c6040518163ffffffff1660e01b815260040160a060405180830381865afa1580156200022f573d6000803e3d6000fd5b505050506040513d601f19601f8201168201806040525081019062000255919062000611565b5050509150508091505090565b600080fd5b600073ffffffffffffffffffffffffffffffffffffffff82169050919050565b6000620002948262000267565b9050919050565b620002a68162000287565b8114620002b257600080fd5b50565b600081519050620002c6816200029b565b92915050565b600060208284031215620002e557620002e462000262565b5b6000620002f584828501620002b5565b91505092915050565b6000819050919050565b7f4e487b7100000000000000000000000000000000000000000000000000000000600052601160045260246000fd5b60006200034482620002fe565b91506200035183620002fe565b9250827f7fffffffffffffffffffffffffffffffffffffffffffffffffffffffffffffff048211600084136000841316161562000393576200039262000308565b5b817f80000000000000000000000000000000000000000000000000000000000000000583126000841260008413161615620003d357620003d262000308565b5b827f8000000000000000000000000000000000000000000000000000000000000000058212600084136000841216161562000413576200041262000308565b5b827f7fffffffffffffffffffffffffffffffffffffffffffffffffffffffffffffff058212600084126000841216161562000453576200045262000308565b5b828202905092915050565b7f4e487b7100000000000000000000000000000000000000000000000000000000600052601260045260246000fd5b60006200049a82620002fe565b9150620004a783620002fe565b925082620004ba57620004b96200045e565b5b600160000383147f800000000000000000000000000000000000000000000000000000000000000083141615620004f657620004f562000308565b5b828205905092915050565b6000819050919050565b6000620005188262000501565b9150620005258362000501565b9250827fffffffffffffffffffffffffffffffffffffffffffffffffffffffffffffffff038211156200055d576200055c62000308565b5b828201905092915050565b600069ffffffffffffffffffff82169050919050565b620005898162000568565b81146200059557600080fd5b50565b600081519050620005a9816200057e565b92915050565b620005ba81620002fe565b8114620005c657600080fd5b50565b600081519050620005da81620005af565b92915050565b620005eb8162000501565b8114620005f757600080fd5b50565b6000815190506200060b81620005e0565b92915050565b600080600080600060a0868803121562000630576200062f62000262565b5b6000620006408882890162000598565b95505060206200065388828901620005c9565b94505060406200066688828901620005fa565b93505060606200067988828901620005fa565b92505060806200068c8882890162000598565b9150509295509295909350565b611fe880620006a96000396000f3fe6080604052600436106101405760003560e01c8063a9c8733c116100b6578063d7bb99ba1161006f578063d7bb99ba146103dd578063e3cfef60146103e7578063f00e6a2a14610412578063f19c7c281461043d578063feed55611461047a578063ff004b1b146104a557610140565b8063a9c8733c14610300578063a9e966b71461032b578063aa40b0c514610354578063b480eac01461037f578063c19d93fb146103a8578063c2c62aab146103d357610140565b80634e18a9f1116101085780634e18a9f11461022e578063590e1ae31461025957806368742da6146102635780637a7679fc1461027f57806381eb1176146102aa5780638e15f473146102d557610140565b80631b3028fc146101455780631e71df5e1461017057806326c7920c1461019b57806327ee8687146101c657806347734892146101f1575b600080fd5b34801561015157600080fd5b5061015a6104af565b6040516101679190611568565b60405180910390f35b34801561017c57600080fd5b506101856104be565b604051610192919061159c565b60405180910390f35b3480156101a757600080fd5b506101b06104c4565b6040516101bd919061159c565b60405180910390f35b3480156101d257600080fd5b506101db6104ca565b6040516101e8919061159c565b60405180910390f35b3480156101fd57600080fd5b506102186004803603810190610213919061161a565b6104d0565b6040516102259190611568565b60405180910390f35b34801561023a57600080fd5b50610243610519565b6040516102509190611568565b60405180910390f35b610261610546565b005b61027d60048036038101906102789190611685565b610957565b005b34801561028b57600080fd5b50610294610a40565b6040516102a19190611568565b60405180910390f35b3480156102b657600080fd5b506102bf610a5b565b6040516102cc9190611568565b60405180910390f35b3480156102e157600080fd5b506102ea610a65565b6040516102f7919061159c565b60405180910390f35b34801561030c57600080fd5b50610315610b06565b604051610322919061159c565b60405180910390f35b34801561033757600080fd5b50610352600480360381019061034d91906116de565b610b24565b005b34801561036057600080fd5b50610369610c5b565b6040516103769190611568565b60405180910390f35b34801561038b57600080fd5b506103a660048036038101906103a191906116de565b610c76565b005b3480156103b457600080fd5b506103bd610d1d565b6040516103ca9190611568565b60405180910390f35b6103db610d23565b005b6103e5610fb6565b005b3480156103f357600080fd5b506103fc6111a0565b6040516104099190611568565b60405180910390f35b34801561041e57600080fd5b506104276111c8565b6040516104349190611568565b60405180910390f35b34801561044957600080fd5b50610464600480360381019061045f919061161a565b6111d2565b6040516104719190611568565b60405180910390f35b34801561048657600080fd5b5061048f61121c565b60405161049c9190611568565b60405180910390f35b6104ad611226565b005b60008060055490508091505090565b60055481565b60075481565b60065481565b6000600860008373ffffffffffffffffffffffffffffffffffffffff1673ffffffffffffffffffffffffffffffffffffffff168152602001908152602001600020549050919050565b600080600a60055461052b9190611769565b9050600060028261053c91906117d3565b9050809250505090565b60006001541461058b576040517f08c379a00000000000000000000000000000000000000000000000000000000081526004016105829061188a565b60405180910390fd5b6000151561278b60003373ffffffffffffffffffffffffffffffffffffffff1673ffffffffffffffffffffffffffffffffffffffff16815260200190815260200160002060009054906101000a900460ff1615151461061f576040517f08c379a0000000000000000000000000000000000000000000000000000000008152600401610616906118f6565b60405180910390fd5b6001151561278b60003373ffffffffffffffffffffffffffffffffffffffff1673ffffffffffffffffffffffffffffffffffffffff16815260200190815260200160002060009054906101000a9050505060011515600a60003373ffffffffffffffffffffffffffffffffffffffff1673ffffffffffffffffffffffffffffffffffffffff16815260200190815260200160002060009054906101000a900460ff1615150361075f5761278d60003373ffffffffffffffffffffffffffffffffffffffff1673ffffffffffffffffffffffffffffffffffffffff16815260200190815260200160002054600860003373ffffffffffffffffffffffffffffffffffffffff1673ffffffffffffffffffffffffffffffffffffffff16815260200190815260200160002060008282546107579190611916565b925050819055505b600061278a60003373ffffffffffffffffffffffffffffffffffffffff1673ffffffffffffffffffffffffffffffffffffffff16815260200190815260200160002054111561088a5761278a60003373ffffffffffffffffffffffffffffffffffffffff1673ffffffffffffffffffffffffffffffffffffffff1681526020019081526020016000205461278c60003373ffffffffffffffffffffffffffffffffffffffff1673ffffffffffffffffffffffffffffffffffffffff1681526020019081526020016000205461083491906117d3565b600860003373ffffffffffffffffffffffffffffffffffffffff1673ffffffffffffffffffffffffffffffffffffffff16815260200190815260200160002060008282546108829190611916565b925050819055505b3373ffffffffffffffffffffffffffffffffffffffff166108fc600860003373ffffffffffffffffffffffffffffffffffffffff1673ffffffffffffffffffffffffffffffffffffffff168152602001908152602001600020549081150290604051600060405180830381858888f1935050505015801561090f573d6000803e3d6000fd5b506000600860003373ffffffffffffffffffffffffffffffffffffffff1673ffffffffffffffffffffffffffffffffffffffff16815260200190815260200160002081905550565b60008054906101000a900473ffffffffffffffffffffffffffffffffffffffff1673ffffffffffffffffffffffffffffffffffffffff163373ffffffffffffffffffffffffffffffffffffffff16146109af57600080fd5b6003600154146109f4576040517f08c379a00000000000000000000000000000000000000000000000000000000081526004016109eb906119b8565b60405180910390fd5b8073ffffffffffffffffffffffffffffffffffffffff166108fc600b549081150290604051600060405180830381858888f19350505050158015610a3c573d6000803e3d6000fd5b5050565b6000806002600554610a5291906119d8565b90508091505090565b6000600b54905090565b600080600260009054906101000a900473ffffffffffffffffffffffffffffffffffffffff1673ffffffffffffffffffffffffffffffffffffffff1663feaf968c6040518163ffffffff1660e01b815260040160a060405180830381865afa158015610ad5573d6000803e3d6000fd5b505050506040513d601f19601f82011682018060405250810190610af99190611b72565b5050509150508091505090565b60006305f5e100610b15610a65565b610b1f9190611769565b905090565b60008054906101000a900473ffffffffffffffffffffffffffffffffffffffff1673ffffffffffffffffffffffffffffffffffffffff163373ffffffffffffffffffffffffffffffffffffffff1614610b7c57600080fd5b6000600d5414610bc1576040517f08c379a0000000000000000000000000000000000000000000000000000000008152600401610bb890611c39565b60405180910390fd5b600060015403610c06576040517f08c379a0000000000000000000000000000000000000000000000000000000008152600401610bfd90611ccb565b60405180910390fd5b8060018190555060028103610c4057601154600c819055506276a70060116000828254610c339190611916565b9250508190556010819055505b600d6000815480929190610c5390611ceb565b919050555050565b600080600a600554610c6d9190611769565b90508091505090565b600260015414610cbb576040517f08c379a0000000000000000000000000000000000000000000000000000000008152600401610cb290611d7f565b60405180910390fd5b60008054906101000a900473ffffffffffffffffffffffffffffffffffffffff1673ffffffffffffffffffffffffffffffffffffffff163373ffffffffffffffffffffffffffffffffffffffff1614610d1357600080fd5b80600f8190555050565b60015481565b600060015403610d68576040517f08c379a0000000000000000000000000000000000000000000000000000000008152600401610d5f90611deb565b60405180910390fd5b610d70610c5b565b600860003373ffffffffffffffffffffffffffffffffffffffff1673ffffffffffffffffffffffffffffffffffffffff168152602001908152602001600020541015610df1576040517f08c379a0000000000000000000000000000000000000000000000000000000008152600401610de890611e57565b60405180910390fd5b6000610dfb610c5b565b905080600860003373ffffffffffffffffffffffffffffffffffffffff1673ffffffffffffffffffffffffffffffffffffffff1681526020019081526020016000206000828254610e4c9190611e77565b925050819055503360136012546127108110610e6b57610e6a611eab565b5b0160006101000a81548173ffffffffffffffffffffffffffffffffffffffff021916908373ffffffffffffffffffffffffffffffffffffffff16021790555060126000815480929190610ebd90611ceb565b919050555061272360003373ffffffffffffffffffffffffffffffffffffffff1673ffffffffffffffffffffffffffffffffffffffff1681526020019081526020016000206000815480929190610f1390611ceb565b919050555061278a60003373ffffffffffffffffffffffffffffffffffffffff1673ffffffffffffffffffffffffffffffffffffffff1681526020019081526020016000206000815480929190610f6990611ceb565b91905055508061278c60003373ffffffffffffffffffffffffffffffffffffffff1673ffffffffffffffffffffffffffffffffffffffff1681526020019081526020016000208190555050565b600060015403610ffb576040517f08c379a0000000000000000000000000000000000000000000000000000000008152600401610ff290611deb565b60405180910390fd5b600360015403611040576040517f08c379a000000000000000000000000000000000000000000000000000000000815260040161103790611f26565b60405180910390fd5b42601181905550600f5434600b546110589190611916565b106110665760036001819055505b60105460115411801561107c5750600360015414155b1561108a5760006001819055505b6000600960003373ffffffffffffffffffffffffffffffffffffffff1673ffffffffffffffffffffffffffffffffffffffff16815260200190815260200160002054036110ea57600e60008154809291906110e490611ceb565b91905055505b6001600960003373ffffffffffffffffffffffffffffffffffffffff1673ffffffffffffffffffffffffffffffffffffffff1681526020019081526020016000208190555034600860003373ffffffffffffffffffffffffffffffffffffffff1673ffffffffffffffffffffffffffffffffffffffff168152602001908152602001600020600082825461117e9190611916565b9250508190555034600b60008282546111979190611916565b92505081905550565b600042601054116111b457600090506111c5565b426010546111c29190611e77565b90505b90565b6000600f54905090565b600061272360008373ffffffffffffffffffffffffffffffffffffffff1673ffffffffffffffffffffffffffffffffffffffff168152602001908152602001600020549050919050565b6000600e54905090565b60026001541461126b576040517f08c379a000000000000000000000000000000000000000000000000000000000815260040161126290611d7f565b60405180910390fd5b6000600154036112b0576040517f08c379a00000000000000000000000000000000000000000000000000000000081526004016112a790611deb565b60405180910390fd5b606561272454106112f6576040517f08c379a00000000000000000000000000000000000000000000000000000000081526004016112ed90611f92565b60405180910390fd5b6112fe610519565b600860003373ffffffffffffffffffffffffffffffffffffffff1673ffffffffffffffffffffffffffffffffffffffff16815260200190815260200160002054101561137f576040517f08c379a000000000000000000000000000000000000000000000000000000000815260040161137690611e57565b60405180910390fd5b6000611389610519565b905060001515600a60003373ffffffffffffffffffffffffffffffffffffffff1673ffffffffffffffffffffffffffffffffffffffff16815260200190815260200160002060009054906101000a900460ff161515146113e857600080fd5b80600860003373ffffffffffffffffffffffffffffffffffffffff1673ffffffffffffffffffffffffffffffffffffffff16815260200190815260200160002060008282546114379190611e77565b925050819055506001600a60003373ffffffffffffffffffffffffffffffffffffffff1673ffffffffffffffffffffffffffffffffffffffff16815260200190815260200160002060006101000a81548160ff0219169083151502179055503361272561272454606581106114af576114ae611eab565b5b0160006101000a81548173ffffffffffffffffffffffffffffffffffffffff021916908373ffffffffffffffffffffffffffffffffffffffff160217905550612724600081548092919061150290611ceb565b91905055508061278d60003373ffffffffffffffffffffffffffffffffffffffff1673ffffffffffffffffffffffffffffffffffffffff1681526020019081526020016000208190555050565b6000819050919050565b6115628161154f565b82525050565b600060208201905061157d6000830184611559565b92915050565b6000819050919050565b61159681611583565b82525050565b60006020820190506115b1600083018461158d565b92915050565b600080fd5b600073ffffffffffffffffffffffffffffffffffffffff82169050919050565b60006115e7826115bc565b9050919050565b6115f7816115dc565b811461160257600080fd5b50565b600081359050611614816115ee565b92915050565b6000602082840312156116305761162f6115b7565b5b600061163e84828501611605565b91505092915050565b6000611652826115bc565b9050919050565b61166281611647565b811461166d57600080fd5b50565b60008135905061167f81611659565b92915050565b60006020828403121561169b5761169a6115b7565b5b60006116a984828501611670565b91505092915050565b6116bb8161154f565b81146116c657600080fd5b50565b6000813590506116d8816116b2565b92915050565b6000602082840312156116f4576116f36115b7565b5b6000611702848285016116c9565b91505092915050565b7f4e487b7100000000000000000000000000000000000000000000000000000000600052601260045260246000fd5b7f4e487b7100000000000000000000000000000000000000000000000000000000600052601160045260246000fd5b600061177482611583565b915061177f83611583565b92508261178f5761178e61170b565b5b600160000383147f8000000000000000000000000000000000000000000000000000000000000000831416156117c8576117c761173a565b5b828205905092915050565b60006117de8261154f565b91506117e98361154f565b9250817fffffffffffffffffffffffffffffffffffffffffffffffffffffffffffffffff04831182151516156118225761182161173a565b5b828202905092915050565b600082825260208201905092915050565b7f4d75737420626520696e20524544207374617465000000000000000000000000600082015250565b600061187460148361182d565b915061187f8261183e565b602082019050919050565b600060208201905081810360008301526118a381611867565b9050919050565b7f43616e206f6e6c7920726566756e64206f6e6365000000000000000000000000600082015250565b60006118e060148361182d565b91506118eb826118aa565b602082019050919050565b6000602082019050818103600083015261190f816118d3565b9050919050565b60006119218261154f565b915061192c8361154f565b9250827fffffffffffffffffffffffffffffffffffffffffffffffffffffffffffffffff038211156119615761196061173a565b5b828201905092915050565b7f4d75737420626520696e20434f4d504c45544520737461746500000000000000600082015250565b60006119a260198361182d565b91506119ad8261196c565b602082019050919050565b600060208201905081810360008301526119d181611995565b9050919050565b60006119e382611583565b91506119ee83611583565b9250827f7fffffffffffffffffffffffffffffffffffffffffffffffffffffffffffffff0482116000841360008413161615611a2d57611a2c61173a565b5b817f80000000000000000000000000000000000000000000000000000000000000000583126000841260008413161615611a6a57611a6961173a565b5b827f80000000000000000000000000000000000000000000000000000000000000000582126000841360008412161615611aa757611aa661173a565b5b827f7fffffffffffffffffffffffffffffffffffffffffffffffffffffffffffffff0582126000841260008412161615611ae457611ae361173a565b5b828202905092915050565b600069ffffffffffffffffffff82169050919050565b611b0e81611aef565b8114611b1957600080fd5b50565b600081519050611b2b81611b05565b92915050565b611b3a81611583565b8114611b4557600080fd5b50565b600081519050611b5781611b31565b92915050565b600081519050611b6c816116b2565b92915050565b600080600080600060a08688031215611b8e57611b8d6115b7565b5b6000611b9c88828901611b1c565b9550506020611bad88828901611b48565b9450506040611bbe88828901611b5d565b9350506060611bcf88828901611b5d565b9250506080611be088828901611b1c565b9150509295509295909350565b7f53746174652063616e206f6e6c79206265206368616e676564206f6e63650000600082015250565b6000611c23601e8361182d565b9150611c2e82611bed565b602082019050919050565b60006020820190508181036000830152611c5281611c16565b9050919050565b7f53746174652063616e6e6f74206265206368616e67656420696620626f756e7460008201527f7920657870697265730000000000000000000000000000000000000000000000602082015250565b6000611cb560298361182d565b9150611cc082611c59565b604082019050919050565b60006020820190508181036000830152611ce481611ca8565b9050919050565b6000611cf68261154f565b91507fffffffffffffffffffffffffffffffffffffffffffffffffffffffffffffffff8203611d2857611d2761173a565b5b600182019050919050565b7f4d75737420626520696e20475245454e20737461746500000000000000000000600082015250565b6000611d6960168361182d565b9150611d7482611d33565b602082019050919050565b60006020820190508181036000830152611d9881611d5c565b9050919050565b7f4d757374206e6f7420626520696e205245442073746174650000000000000000600082015250565b6000611dd560188361182d565b9150611de082611d9f565b602082019050919050565b60006020820190508181036000830152611e0481611dc8565b9050919050565b7f4e6f7420656e6f7567682066756e647300000000000000000000000000000000600082015250565b6000611e4160108361182d565b9150611e4c82611e0b565b602082019050919050565b60006020820190508181036000830152611e7081611e34565b9050919050565b6000611e828261154f565b9150611e8d8361154f565b925082821015611ea057611e9f61173a565b5b828203905092915050565b7f4e487b7100000000000000000000000000000000000000000000000000000000600052603260045260246000fd5b7f5468697320426f756e747920697320636c6f7365640000000000000000000000600082015250565b6000611f1060158361182d565b9150611f1b82611eda565b602082019050919050565b60006020820190508181036000830152611f3f81611f03565b9050919050565b7f566970204c6973742066756c6c00000000000000000000000000000000000000600082015250565b6000611f7c600d8361182d565b9150611f8782611f46565b602082019050919050565b60006020820190508181036000830152611fab81611f6f565b905091905056fea264697066735822122055e379f41db7b8a5d4793e95cf3acfc11f12fdc32cc473a9267b89b0c58c9bfe64736f6c634300080f0033a264697066735822122014bbf14eecfcc0dfd4f8f6c8d95f4cfb8b14fbed93c078afdceed7596c08a8f864736f6c634300080f0033",
  "immutableReferences": {},
  "source": "// SPDX-License-Identifier: GPL-3.0\n\npragma solidity <0.9.0;\n\nimport './BandBountyContract.sol';\n\ncontract BountyFactory {\n    Bounty[] public deployedBounties;\n    \n    function createBounty(address creator) external payable {\n        Bounty bounty = new Bounty{value: 111}(creator);\n        deployedBounties.push(bounty);\n        \n\n    /*function getDeployedBounties() public view returns(Bounty[] memory) {\n        return deployedBounties;\n    }*/\n\n    }\n}\n\n\n/*\n// function arguments are passed to the constructor of the new created contract \n  function createBank(address _owner, uint256 _funds) external {\n    bank = new Bank(_owner, _funds);\n    list_of_banks.push(bank);\n  }\n\n  */",
  "sourcePath": "/Users/danielboyce/Documents/Visual-studio/Portfolio/BandBountyRebuild/contracts/BandBountyFactory.sol",
  "compiler": {
    "name": "solc",
    "version": "0.8.15+commit.e14f2714.Emscripten.clang"
  },
  "schemaVersion": "3.4.8",
  "updatedAt": "2022-08-11T11:36:59.539Z",
  "devdoc": {
    "kind": "dev",
    "methods": {},
    "version": 1
  },
  "userdoc": {
    "kind": "user",
    "methods": {},
    "version": 1
  }
}