{
  "contractName": "Modifiers",
  "abi": [
    {
      "inputs": [],
      "name": "state",
      "outputs": [
        {
          "internalType": "uint256",
          "name": "",
          "type": "uint256"
        }
      ],
      "stateMutability": "view",
      "type": "function"
    }
  ],
  "bytecode": "0x608060405234801561001057600080fd5b5060b38061001f6000396000f3fe6080604052348015600f57600080fd5b506004361060285760003560e01c8063c19d93fb14602d575b600080fd5b60336047565b604051603e91906064565b60405180910390f35b60015481565b6000819050919050565b605e81604d565b82525050565b6000602082019050607760008301846057565b9291505056fea2646970667358221220526fe8b7a77f80a21976499ae3458343774ba574a57698687783cbe5a99a2e8364736f6c634300080f0033",
  "immutableReferences": {},
  "source": "// SPDX-License-Identifier: GPL-3.0\n\npragma solidity <0.9.0;\n\ncontract Modifiers {\n\n    address manager;\n    uint public state;\n\n\n    modifier onlyOwner() {\n        require(msg.sender == manager);\n        _;\n    }\n\n    modifier redOnly() {\n        require(state == 0, \"Must be in RED state\");\n        _;\n    }\n\n    modifier greenOnly() {\n        require(state == 2, \"Must be in GREEN state\");\n        _;\n    }\n\n    modifier notRed() {\n        require(state != 0, \"Must not be in RED state\");\n        _;\n    }\n\n\n}",
  "sourcePath": "/Users/danielboyce/Documents/Visual-studio/Portfolio/BandBountyRebuild/contracts/ModifiersContract.sol",
  "compiler": {
    "name": "solc",
    "version": "0.8.15+commit.e14f2714.Emscripten.clang"
  },
  "schemaVersion": "3.4.8",
  "updatedAt": "2022-07-23T11:09:04.291Z",
  "devdoc": {
    "kind": "dev",
    "methods": {},
    "version": 1
  },
  "userdoc": {
    "kind": "user",
    "methods": {},
    "version": 1
  }
}