{
  "contractName": "Modifiers",
  "abi": [
    {
      "inputs": [],
      "name": "state",
      "outputs": [
        {
          "internalType": "uint256",
          "name": "",
          "type": "uint256"
        }
      ],
      "stateMutability": "view",
      "type": "function"
    }
  ],
  "bytecode": "0x6080604052735c3d553769d4473d53df67b04eb0f51d3c7705d86000806101000a81548173ffffffffffffffffffffffffffffffffffffffff021916908373ffffffffffffffffffffffffffffffffffffffff16021790555034801561006457600080fd5b5060b3806100736000396000f3fe6080604052348015600f57600080fd5b506004361060285760003560e01c8063c19d93fb14602d575b600080fd5b60336047565b604051603e91906064565b60405180910390f35b60015481565b6000819050919050565b605e81604d565b82525050565b6000602082019050607760008301846057565b9291505056fea2646970667358221220946bc8551df74b30d120cadd80d31a1a30ac4618b71510a6ec417476652afe7464736f6c634300080f0033",
  "immutableReferences": {},
  "source": "// SPDX-License-Identifier: GPL-3.0\n\npragma solidity <0.9.0;\n\ncontract Modifiers {\n\n    //this is my metamask account used to demo this project\n    address admin = 0x5C3d553769D4473d53dF67b04Eb0f51D3C7705D8;\n    uint public state;\n\n\n    modifier onlyAdmin() {\n        require(msg.sender == admin);\n        _;\n    }\n\n    modifier redOnly() {\n        require(state == 0, \"Must be in RED state\");\n        _;\n    }\n\n    modifier greenOnly() {\n        require(state == 2, \"Must be in GREEN state\");\n        _;\n    }\n\n    modifier notRed() {\n        require(state != 0, \"Must not be in RED state\");\n        _;\n    }\n\n    modifier bountyComplete() {\n        require(state == 3, \"Must be in COMPLETE state\");\n        _;\n    }\n\n\n}",
  "sourcePath": "/Users/danielboyce/Documents/Visual-studio/Portfolio/BandBountyRebuild/contracts/ModifiersContract.sol",
  "compiler": {
    "name": "solc",
    "version": "0.8.15+commit.e14f2714.Emscripten.clang"
  },
  "schemaVersion": "3.4.8",
  "updatedAt": "2022-08-11T11:36:59.564Z",
  "devdoc": {
    "kind": "dev",
    "methods": {},
    "version": 1
  },
  "userdoc": {
    "kind": "user",
    "methods": {},
    "version": 1
  }
}