{
  "contractName": "PriceConsumerV3",
  "abi": [
    {
      "inputs": [],
      "stateMutability": "nonpayable",
      "type": "constructor"
    },
    {
      "inputs": [],
      "name": "minRequiredEther",
      "outputs": [
        {
          "internalType": "int256",
          "name": "",
          "type": "int256"
        }
      ],
      "stateMutability": "view",
      "type": "function"
    },
    {
      "inputs": [],
      "name": "getLatestPrice",
      "outputs": [
        {
          "internalType": "int256",
          "name": "",
          "type": "int256"
        }
      ],
      "stateMutability": "view",
      "type": "function"
    },
    {
      "inputs": [],
      "name": "correct",
      "outputs": [
        {
          "internalType": "int256",
          "name": "",
          "type": "int256"
        }
      ],
      "stateMutability": "view",
      "type": "function"
    },
    {
      "inputs": [],
      "name": "standardTicket",
      "outputs": [
        {
          "internalType": "uint256",
          "name": "",
          "type": "uint256"
        }
      ],
      "stateMutability": "view",
      "type": "function"
    },
    {
      "inputs": [],
      "name": "vipTicket",
      "outputs": [
        {
          "internalType": "uint256",
          "name": "",
          "type": "uint256"
        }
      ],
      "stateMutability": "view",
      "type": "function"
    }
  ],
  "bytecode": "0x60806040523480156200001157600080fd5b50738a753747a1fa494ec906ce90e9f37563a8af630e6000806101000a81548173ffffffffffffffffffffffffffffffffffffffff021916908373ffffffffffffffffffffffffffffffffffffffff1602179055506802b5e3af16b1880000600181905550670de0b6b3a76400006200008f620000d460201b60201c565b6200009b9190620001d7565b600281905550600254670de0b6b3a7640000600154620000bc9190620001d7565b620000c891906200032d565b600381905550620004e1565b60006305f5e100620000eb620000fc60201b60201c565b620000f791906200032d565b905090565b60008060008054906101000a900473ffffffffffffffffffffffffffffffffffffffff1673ffffffffffffffffffffffffffffffffffffffff1663feaf968c6040518163ffffffff1660e01b815260040160a060405180830381865afa1580156200016b573d6000803e3d6000fd5b505050506040513d601f19601f8201168201806040525081019062000191919062000459565b5050509150508091505090565b6000819050919050565b7f4e487b7100000000000000000000000000000000000000000000000000000000600052601160045260246000fd5b6000620001e4826200019e565b9150620001f1836200019e565b9250827f7fffffffffffffffffffffffffffffffffffffffffffffffffffffffffffffff0482116000841360008413161615620002335762000232620001a8565b5b817f80000000000000000000000000000000000000000000000000000000000000000583126000841260008413161615620002735762000272620001a8565b5b827f80000000000000000000000000000000000000000000000000000000000000000582126000841360008412161615620002b357620002b2620001a8565b5b827f7fffffffffffffffffffffffffffffffffffffffffffffffffffffffffffffff0582126000841260008412161615620002f357620002f2620001a8565b5b828202905092915050565b7f4e487b7100000000000000000000000000000000000000000000000000000000600052601260045260246000fd5b60006200033a826200019e565b915062000347836200019e565b9250826200035a5762000359620002fe565b5b600160000383147f800000000000000000000000000000000000000000000000000000000000000083141615620003965762000395620001a8565b5b828205905092915050565b600080fd5b600069ffffffffffffffffffff82169050919050565b620003c781620003a6565b8114620003d357600080fd5b50565b600081519050620003e781620003bc565b92915050565b620003f8816200019e565b81146200040457600080fd5b50565b6000815190506200041881620003ed565b92915050565b6000819050919050565b62000433816200041e565b81146200043f57600080fd5b50565b600081519050620004538162000428565b92915050565b600080600080600060a08688031215620004785762000477620003a1565b5b60006200048888828901620003d6565b95505060206200049b8882890162000407565b9450506040620004ae8882890162000442565b9350506060620004c18882890162000442565b9250506080620004d488828901620003d6565b9150509295509295909350565b61057680620004f16000396000f3fe608060405234801561001057600080fd5b50600436106100575760003560e01c80631b3028fc1461005c5780631e71df5e1461007a5780637a7679fc146100985780638e15f473146100b6578063a9c8733c146100d4575b600080fd5b6100646100f2565b60405161007191906101f8565b60405180910390f35b610082610101565b60405161008f919061022c565b60405180910390f35b6100a0610107565b6040516100ad91906101f8565b60405180910390f35b6100be610122565b6040516100cb919061022c565b60405180910390f35b6100dc6101c1565b6040516100e9919061022c565b60405180910390f35b60008060035490508091505090565b60035481565b60008060026003546101199190610276565b90508091505090565b60008060008054906101000a900473ffffffffffffffffffffffffffffffffffffffff1673ffffffffffffffffffffffffffffffffffffffff1663feaf968c6040518163ffffffff1660e01b815260040160a060405180830381865afa158015610190573d6000803e3d6000fd5b505050506040513d601f19601f820116820180604052508101906101b4919061042c565b5050509150508091505090565b60006305f5e1006101d0610122565b6101da91906104d6565b905090565b6000819050919050565b6101f2816101df565b82525050565b600060208201905061020d60008301846101e9565b92915050565b6000819050919050565b61022681610213565b82525050565b6000602082019050610241600083018461021d565b92915050565b7f4e487b7100000000000000000000000000000000000000000000000000000000600052601160045260246000fd5b600061028182610213565b915061028c83610213565b9250827f7fffffffffffffffffffffffffffffffffffffffffffffffffffffffffffffff04821160008413600084131616156102cb576102ca610247565b5b817f8000000000000000000000000000000000000000000000000000000000000000058312600084126000841316161561030857610307610247565b5b827f8000000000000000000000000000000000000000000000000000000000000000058212600084136000841216161561034557610344610247565b5b827f7fffffffffffffffffffffffffffffffffffffffffffffffffffffffffffffff058212600084126000841216161561038257610381610247565b5b828202905092915050565b600080fd5b600069ffffffffffffffffffff82169050919050565b6103b181610392565b81146103bc57600080fd5b50565b6000815190506103ce816103a8565b92915050565b6103dd81610213565b81146103e857600080fd5b50565b6000815190506103fa816103d4565b92915050565b610409816101df565b811461041457600080fd5b50565b60008151905061042681610400565b92915050565b600080600080600060a086880312156104485761044761038d565b5b6000610456888289016103bf565b9550506020610467888289016103eb565b945050604061047888828901610417565b935050606061048988828901610417565b925050608061049a888289016103bf565b9150509295509295909350565b7f4e487b7100000000000000000000000000000000000000000000000000000000600052601260045260246000fd5b60006104e182610213565b91506104ec83610213565b9250826104fc576104fb6104a7565b5b600160000383147f80000000000000000000000000000000000000000000000000000000000000008314161561053557610534610247565b5b82820590509291505056fea2646970667358221220a43a49a1679755cc5bf4bb7d43e29e5de5f0d3084a63d4232811a0500a7ee4a164736f6c634300080f0033",
  "immutableReferences": {},
  "source": "// SPDX-License-Identifier: MIT\npragma solidity ^0.8.7;\n\nimport \"@chainlink/contracts/src/v0.8/interfaces/AggregatorV3Interface.sol\";\n\ncontract PriceConsumerV3 {\n\n    AggregatorV3Interface internal priceFeed;\n\n\n    int minRequiredUSD;\n    int etherPriceUSD;\n    int public minRequiredEther;\n\n    /**\n     * Network: Rinkeby\n     * Aggregator: ETH/USD\n     * Address: 0x8A753747A1Fa494EC906cE90E9f37563A8AF630e\n     */\n    constructor() {\n        priceFeed = AggregatorV3Interface(0x8A753747A1Fa494EC906cE90E9f37563A8AF630e);\n    \n        minRequiredUSD = 50*10**18;\n        etherPriceUSD = (correct()*10**18);\n\n        minRequiredEther = (minRequiredUSD*10**18)/etherPriceUSD;\n\n    }\n\n    /**\n     * Returns the latest price\n     */\n    function getLatestPrice() public view returns (int) {\n        (\n            /*uint80 roundID*/,\n            int price,\n            /*uint startedAt*/,\n            /*uint timeStamp*/,\n            /*uint80 answeredInRound*/\n        ) = priceFeed.latestRoundData();\n        return price;\n    }\n\n    function correct() public view returns (int) {\n        return (getLatestPrice() / 100000000);\n    }\n\n    function standardTicket() public view returns(uint256) {\n         uint256 adjustedPrice = uint256(minRequiredEther);\n         return adjustedPrice;\n        \n    }\n\n    function vipTicket() public view returns(uint256) {\n        uint256 vipAdjustedPrice = uint256(minRequiredEther * 2);\n        return vipAdjustedPrice;\n    }\n\n\n\n\n}\n",
  "sourcePath": "/Users/danielboyce/Documents/Visual-studio/Portfolio/BandBountyRebuild/contracts/PriceFeed.sol",
  "compiler": {
    "name": "solc",
    "version": "0.8.15+commit.e14f2714.Emscripten.clang"
  },
  "schemaVersion": "3.4.8",
  "updatedAt": "2022-07-23T11:09:04.294Z",
  "devdoc": {
    "kind": "dev",
    "methods": {},
    "version": 1
  },
  "userdoc": {
    "kind": "user",
    "methods": {
      "constructor": {
        "notice": "Network: Rinkeby Aggregator: ETH/USD Address: 0x8A753747A1Fa494EC906cE90E9f37563A8AF630e"
      },
      "getLatestPrice()": {
        "notice": "Returns the latest price"
      }
    },
    "version": 1
  }
}