{
  "contractName": "PriceConsumerV3",
  "abi": [
    {
      "inputs": [],
      "stateMutability": "nonpayable",
      "type": "constructor"
    },
    {
      "inputs": [],
      "name": "demoStandardPrice",
      "outputs": [
        {
          "internalType": "int256",
          "name": "",
          "type": "int256"
        }
      ],
      "stateMutability": "view",
      "type": "function"
    },
    {
      "inputs": [],
      "name": "demoVipPrice",
      "outputs": [
        {
          "internalType": "int256",
          "name": "",
          "type": "int256"
        }
      ],
      "stateMutability": "view",
      "type": "function"
    },
    {
      "inputs": [],
      "name": "minRequiredEther",
      "outputs": [
        {
          "internalType": "int256",
          "name": "",
          "type": "int256"
        }
      ],
      "stateMutability": "view",
      "type": "function"
    },
    {
      "inputs": [],
      "name": "getLatestPrice",
      "outputs": [
        {
          "internalType": "int256",
          "name": "",
          "type": "int256"
        }
      ],
      "stateMutability": "view",
      "type": "function"
    },
    {
      "inputs": [],
      "name": "correct",
      "outputs": [
        {
          "internalType": "int256",
          "name": "",
          "type": "int256"
        }
      ],
      "stateMutability": "view",
      "type": "function"
    },
    {
      "inputs": [],
      "name": "standardTicket",
      "outputs": [
        {
          "internalType": "uint256",
          "name": "",
          "type": "uint256"
        }
      ],
      "stateMutability": "view",
      "type": "function"
    },
    {
      "inputs": [],
      "name": "vipTicket",
      "outputs": [
        {
          "internalType": "uint256",
          "name": "",
          "type": "uint256"
        }
      ],
      "stateMutability": "view",
      "type": "function"
    },
    {
      "inputs": [],
      "name": "getDemoStandardPrice",
      "outputs": [
        {
          "internalType": "uint256",
          "name": "",
          "type": "uint256"
        }
      ],
      "stateMutability": "view",
      "type": "function"
    },
    {
      "inputs": [],
      "name": "getDemoVipPrice",
      "outputs": [
        {
          "internalType": "uint256",
          "name": "",
          "type": "uint256"
        }
      ],
      "stateMutability": "view",
      "type": "function"
    }
  ],
  "bytecode": "0x60806040523480156200001157600080fd5b50738a753747a1fa494ec906ce90e9f37563a8af630e6000806101000a81548173ffffffffffffffffffffffffffffffffffffffff021916908373ffffffffffffffffffffffffffffffffffffffff1602179055506802b5e3af16b1880000600181905550670de0b6b3a76400006200008f620000d460201b60201c565b6200009b9190620001d7565b600281905550600254670de0b6b3a7640000600154620000bc9190620001d7565b620000c891906200032d565b600381905550620004e1565b60006305f5e100620000eb620000fc60201b60201c565b620000f791906200032d565b905090565b60008060008054906101000a900473ffffffffffffffffffffffffffffffffffffffff1673ffffffffffffffffffffffffffffffffffffffff1663feaf968c6040518163ffffffff1660e01b815260040160a060405180830381865afa1580156200016b573d6000803e3d6000fd5b505050506040513d601f19601f8201168201806040525081019062000191919062000459565b5050509150508091505090565b6000819050919050565b7f4e487b7100000000000000000000000000000000000000000000000000000000600052601160045260246000fd5b6000620001e4826200019e565b9150620001f1836200019e565b9250827f7fffffffffffffffffffffffffffffffffffffffffffffffffffffffffffffff0482116000841360008413161615620002335762000232620001a8565b5b817f80000000000000000000000000000000000000000000000000000000000000000583126000841260008413161615620002735762000272620001a8565b5b827f80000000000000000000000000000000000000000000000000000000000000000582126000841360008412161615620002b357620002b2620001a8565b5b827f7fffffffffffffffffffffffffffffffffffffffffffffffffffffffffffffff0582126000841260008412161615620002f357620002f2620001a8565b5b828202905092915050565b7f4e487b7100000000000000000000000000000000000000000000000000000000600052601260045260246000fd5b60006200033a826200019e565b915062000347836200019e565b9250826200035a5762000359620002fe565b5b600160000383147f800000000000000000000000000000000000000000000000000000000000000083141615620003965762000395620001a8565b5b828205905092915050565b600080fd5b600069ffffffffffffffffffff82169050919050565b620003c781620003a6565b8114620003d357600080fd5b50565b600081519050620003e781620003bc565b92915050565b620003f8816200019e565b81146200040457600080fd5b50565b6000815190506200041881620003ed565b92915050565b6000819050919050565b62000433816200041e565b81146200043f57600080fd5b50565b600081519050620004538162000428565b92915050565b600080600080600060a08688031215620004785762000477620003a1565b5b60006200048888828901620003d6565b95505060206200049b8882890162000407565b9450506040620004ae8882890162000442565b9350506060620004c18882890162000442565b9250506080620004d488828901620003d6565b9150509295509295909350565b6106d880620004f16000396000f3fe608060405234801561001057600080fd5b50600436106100935760003560e01c80634e18a9f1116100665780634e18a9f1146101105780637a7679fc1461012e5780638e15f4731461014c578063a9c8733c1461016a578063aa40b0c51461018857610093565b80631b3028fc146100985780631e71df5e146100b657806326c7920c146100d457806327ee8687146100f2575b600080fd5b6100a06101a6565b6040516100ad9190610300565b60405180910390f35b6100be6101b5565b6040516100cb9190610334565b60405180910390f35b6100dc6101bb565b6040516100e99190610334565b60405180910390f35b6100fa6101c1565b6040516101079190610334565b60405180910390f35b6101186101c7565b6040516101259190610300565b60405180910390f35b6101366101f4565b6040516101439190610300565b60405180910390f35b61015461020f565b6040516101619190610334565b60405180910390f35b6101726102ae565b60405161017f9190610334565b60405180910390f35b6101906102cc565b60405161019d9190610300565b60405180910390f35b60008060035490508091505090565b60035481565b60055481565b60045481565b600080600a6003546101d991906103ad565b905060006002826101ea9190610417565b9050809250505090565b60008060026003546102069190610471565b90508091505090565b60008060008054906101000a900473ffffffffffffffffffffffffffffffffffffffff1673ffffffffffffffffffffffffffffffffffffffff1663feaf968c6040518163ffffffff1660e01b815260040160a060405180830381865afa15801561027d573d6000803e3d6000fd5b505050506040513d601f19601f820116820180604052508101906102a19190610627565b5050509150508091505090565b60006305f5e1006102bd61020f565b6102c791906103ad565b905090565b600080600a6003546102de91906103ad565b90508091505090565b6000819050919050565b6102fa816102e7565b82525050565b600060208201905061031560008301846102f1565b92915050565b6000819050919050565b61032e8161031b565b82525050565b60006020820190506103496000830184610325565b92915050565b7f4e487b7100000000000000000000000000000000000000000000000000000000600052601260045260246000fd5b7f4e487b7100000000000000000000000000000000000000000000000000000000600052601160045260246000fd5b60006103b88261031b565b91506103c38361031b565b9250826103d3576103d261034f565b5b600160000383147f80000000000000000000000000000000000000000000000000000000000000008314161561040c5761040b61037e565b5b828205905092915050565b6000610422826102e7565b915061042d836102e7565b9250817fffffffffffffffffffffffffffffffffffffffffffffffffffffffffffffffff04831182151516156104665761046561037e565b5b828202905092915050565b600061047c8261031b565b91506104878361031b565b9250827f7fffffffffffffffffffffffffffffffffffffffffffffffffffffffffffffff04821160008413600084131616156104c6576104c561037e565b5b817f800000000000000000000000000000000000000000000000000000000000000005831260008412600084131616156105035761050261037e565b5b827f800000000000000000000000000000000000000000000000000000000000000005821260008413600084121616156105405761053f61037e565b5b827f7fffffffffffffffffffffffffffffffffffffffffffffffffffffffffffffff058212600084126000841216161561057d5761057c61037e565b5b828202905092915050565b600080fd5b600069ffffffffffffffffffff82169050919050565b6105ac8161058d565b81146105b757600080fd5b50565b6000815190506105c9816105a3565b92915050565b6105d88161031b565b81146105e357600080fd5b50565b6000815190506105f5816105cf565b92915050565b610604816102e7565b811461060f57600080fd5b50565b600081519050610621816105fb565b92915050565b600080600080600060a0868803121561064357610642610588565b5b6000610651888289016105ba565b9550506020610662888289016105e6565b945050604061067388828901610612565b935050606061068488828901610612565b9250506080610695888289016105ba565b915050929550929590935056fea26469706673582212201bdbc7f5f796dfc2e491bfdaaf839b005f4dea39dbf31450f5ba6568885915c664736f6c634300080f0033",
  "immutableReferences": {},
  "source": "// SPDX-License-Identifier: MIT\npragma solidity ^0.8.7;\n\nimport \"@chainlink/contracts/src/v0.8/interfaces/AggregatorV3Interface.sol\";\n\ncontract PriceConsumerV3 {\n\n    AggregatorV3Interface internal priceFeed;\n\n\n    int minRequiredUSD;\n    int etherPriceUSD;\n    int public minRequiredEther;\n    int public demoStandardPrice;\n    int public demoVipPrice;\n\n    /**\n     * Network: Rinkeby\n     * Aggregator: ETH/USD\n     * Address: 0x8A753747A1Fa494EC906cE90E9f37563A8AF630e\n     */\n    constructor() {\n        priceFeed = AggregatorV3Interface(0x8A753747A1Fa494EC906cE90E9f37563A8AF630e);\n    \n        minRequiredUSD = 50*10**18;\n        etherPriceUSD = (correct()*10**18);\n\n        minRequiredEther = (minRequiredUSD*10**18)/etherPriceUSD;\n\n    }\n\n    /**\n     * Returns the latest price\n     */\n    function getLatestPrice() public view returns (int) {\n        (\n            /*uint80 roundID*/,\n            int price,\n            /*uint startedAt*/,\n            /*uint timeStamp*/,\n            /*uint80 answeredInRound*/\n        ) = priceFeed.latestRoundData();\n        return price;\n    }\n\n    function correct() public view returns (int) {\n        return (getLatestPrice() / 100000000);\n    }\n\n    function standardTicket() public view returns(uint256) {\n         uint256 adjustedPrice = uint256(minRequiredEther);\n         return adjustedPrice;\n        \n    }\n\n    function vipTicket() public view returns(uint256) {\n        uint256 vipAdjustedPrice = uint256(minRequiredEther * 2);\n        return vipAdjustedPrice;\n    }\n\n    function getDemoStandardPrice() public view returns(uint256) {\n        uint256 adjustedPrice = uint256(minRequiredEther / 10);\n        return adjustedPrice;\n    }\n\n    function getDemoVipPrice() public view returns(uint256) {\n        uint256 newNumber = uint256(minRequiredEther / 10);\n        uint256 vipAdjustedPrice = uint256(newNumber * 2);\n        return vipAdjustedPrice;\n    }\n\n\n\n\n}\n",
  "sourcePath": "/Users/danielboyce/Documents/Visual-studio/Portfolio/BandBountyRebuild/contracts/PriceFeed.sol",
  "compiler": {
    "name": "solc",
    "version": "0.8.15+commit.e14f2714.Emscripten.clang"
  },
  "schemaVersion": "3.4.8",
  "updatedAt": "2022-08-11T11:36:59.582Z",
  "devdoc": {
    "kind": "dev",
    "methods": {},
    "version": 1
  },
  "userdoc": {
    "kind": "user",
    "methods": {
      "constructor": {
        "notice": "Network: Rinkeby Aggregator: ETH/USD Address: 0x8A753747A1Fa494EC906cE90E9f37563A8AF630e"
      },
      "getLatestPrice()": {
        "notice": "Returns the latest price"
      }
    },
    "version": 1
  }
}